:0E02BD000526344310100105213443101001B2
:10026200E4FDFCC3ED9FEC9E50070DBD00010C8028
:10027200F2E4FCFDC3ED9FEC9E50070DBD00010CA6
:0202820080F208
:010284002257
:0B02D900EFD394004004001F80F622C9
:10028500759858758921758DFD758BFDD28EC2AB1C
:07029500D2ACD2BCD2AF22B3
:0300230002023D99
:10023D00C0E0C0D075D018309816744D252BF8A697
:10024D0099C298052BE52BB40106752B00752C0171
:05025D00D0D0D0E0321A
:0802E4008F993099FDC29922A7
:1000FC007F641202D9C295D294C2937B007A0079A4
:10010C00267511057F301201817A00792112017A4E
:10011C007D017F2112029C7D017F2212029CE4FD55
:10012C007F2512029C7D207F3112029C7D077F2649
:03013C0002029C20
:10000300E4FEEF339292EF25E0FFD293A291E43323
:080013004207C2930EBE08EA89
:01001B0022C2
:0C02CC00C294120003E4FF120003D2945D
:0102D8002203
:10029C00C294120003AC07AF05120003D294AF0452
:0102AC00222F
:0601B3008B138A1489156C
:1001B900C294120003AD07E4FCECC395165017E492
:1001C900FF120003AB13AA14A9158C82758300EFE3
:0A01D9001201580C80E3D294AF0528
:0101E30022F9
:07017A007B007511057F2ACF
:060181008B0E8A0F8910AD
:10018700C294120003AD07E4FCECC395115018AB01
:100197000E0510E510AA0F7002050F14F912013FA2
:0B01A700FF1200030C80E2D294AF05B1
:0101B200222A
:1002AD00C2957D0F7F2012029CD2957F820202D9CA
:0601E4008B6D8A6E896F2D
:1001EA00E4FB7F071202CC8F20300612C295AB6D5A
:1001FA00AA6EA96F7516207F611201B37B01AD202B
:07020A007F2712029CAF03E5
:0102110022CA
:100212008B0A8A0B890CC2957A00792612017AAB75
:100222000AAA0BA90C7511207FA01201817D0E7FF5
:0B0232002012029CD2957F0A0202D924
:1000B200E4F508F5091200FCC2947FE21200037F06
:1000C200E1120003D2947F587E021202621202856C
:1000D200E52CB401FB7B007A00794D1202127F07F6
:1000E2001202CC8F20AD207F2712029CE4F52CC295
:0A00F20083C2847FE81202D980D691
:03000000020026D5
:0C002600787FE4F6D8FD75816F02006D54
:10013F00BB010689828A83E0225002E722BBFE02BE
:09014F00E32289828A83E49322F1
:10015800F8BB010DE58229F582E5833AF583E8F0DD
:10016800225006E92582C8F622BBFE05E92582C889
:02017800F22271
:100032000200B2E493A3F8E493A34003F68001F232
:1000420008DFF48029E493A3F85407240CC8C333CF
:10005200C4540F4420C8834004F456800146F6DF9E
:10006200E4800B01020408102040809002BDE47E6F
:10007200019360BCA3FF543F30E509541FFEE49393
:10008200A360010ECF54C025E060A840B8E493A35A
:10009200FAE493A3F8E493A3C8C582C8CAC583CA85
:1000A200F0A3C8C582C8CAC583CADFE9DEE780BE3D
:0102CB000032
:00000001FF
