:10000600B4AEBFDAD4CBD0D0D6D02E2E2E2E0D0A3B
:1000160000BFDAC1EEA3BA31A1A2B4FAC2EBB2E2D2
:10002600CAD40D0A000932A1A2BFAAB7A2B0E5D16F
:10003600E9D6A40D0A000933A1A2BFAAB5C60D0AC6
:10004600000934A1A2B9D8B5C60D0A002020202087
:1000560035A1A2B1B1BEA90D0A000936A1A2C9CF28
:10006600BAA30D0A000937A1A2B9E3D6DD0D0A002D
:10007600A1B0B4FAC2EBB2E2CAD4A1B1C3FCC1EEDC
:10008600CAB6B1F0B3C9B9A60D0A00A1B0BFAAB7E6
:10009600A2B0E5D1E9D6A4A1B1C3FCC1EECAB6B1FE
:1000A600F0B3C9B9A60D0A00A1B0BFAAB5C6A1B1E1
:1000B600C3FCC1EECAB6B1F0B3C9B9A60D0A00A118
:1000C600B0B9D8B5C6A1B1C3FCC1EECAB6B1F0B3DA
:1000D600C9B9A60D0A00A1B0B1B1BEA9A1B1C3FCB0
:1000E600C1EECAB6B1F0B3C9B9A60D0A00A1B0C92E
:1000F600CFBAA3A1B1C3FCC1EECAB6B1F0B3C9B9B8
:10010600A60D0A00A1B0B9E3D6DDA1B1C3FCC1EECC
:10011600CAB6B1F0B3C9B9A60D0A00C7EBD6D8D096
:0E012600C2CAB6B1F0B7A2BFDAC1EE0D0A0030
:06093100011C00011B0087
:1004BE00E4F5091208D71208F31207C2120867E40E
:1004CE00781CF67BFF7A00790612088E7BFF7A0085
:1004DE00791712088E7BFF7A00792B12088E7BFF1C
:1004EE007A00793C12088E7BFF7A00794712088ECB
:1004FE007BFF7A00795212088E7BFF7A00796012A8
:10050E00088E7BFF7A00796B12088E781CE61460D9
:10051E00FA24F1601824DF60F224317020781C7602
:10052E000112072FEF70E4781C763180DE1209522B
:10053E00781EEFF6120670E4781CF680CEE4781C76
:03054E00F680C86C
:1008D700B2C2120919B2C2120919B2C2120919B267
:0C08E700C2120919B2C2120919B2C222D1
:1008F3007580FF7590FF75A0FF75B0FF75C0FFC2CF
:08090300C3D289D2A8D2AF22B1
:0A09260000007F057E49DEFEDFFCC5
:0109300022A4
:0808B3008F148E138D128C11BD
:1008BB00E4F515F516F517F518781174FF12015DAF
:0B08CB00EC4D4E4F600512092680EE38
:0108D60022FF
:0C0919007F117ED07D1BDDFEDEFCDFFACE
:0109250022AF
:03000300020803ED
:10080300C0E0C0F0C083C082C0D075D000C000C0BB
:1008130001C002C003C004C005C006C007120429FA
:10082300D007D006D005D004D003D002D001D00029
:0B083300D0D0D082D083D0F0D0E032D3
:1006700020C15CEF24FE601E24FE6022146027244B
:10068000EF602B14603024E86034242E70387BFF38
:100690007A00797680367BFF7A007991802E7BFF15
:1006A0007A0079AE80267BFF7A0079C5801E7BFFB9
:1006B0007A0079DC80167BFF7A0079F3800E7BFF6D
:1006C0007A01790A80067BFF7A01792112088E224D
:100249007869616F206A696500000000000000009C
:10025900000000006B61692066612062616E20798F
:10026900616E207A68656E67646169206D612063DB
:100279006520736869000000000000006B61692057
:1002890064656E67000000000000000000000000C7
:100299006775616E2064656E6700000000000000EC
:1002A90000000000626569206A696E67000000004D
:1002B90000000000000000007368616E672068613B
:1002C9006900000000000000000000006775616E11
:1002D90067207A686F7500000000000000000000C8
:0802E900000201040516172FA5
:1007C200D2B57F017E007D007C001208B3C2B57FE6
:1007D200017E007D007C001208B3D2B57F017E004D
:1007E2007D007C001208B3C2A17F017E007D007CE7
:1007F200001208B3D2A17F017E007D007C000208B6
:01080200B342
:1002F1007F061209477D357F1712093C7F0A7E0070
:100301007D007C001208B37F061209477D037F89B7
:1003110012093C7F057E007D007C001208B37D43FD
:100321007FCF12093C7F057E007D007C001208B35F
:100331007D027FCB12093C7D0A7F1112093CE4FD4D
:100341007F1E12093C7D3F7F1912093C7D487F1BAE
:1003510012093C7D1F7F1D12093C7F0A7E007D0032
:100361007C001208B37D047FCD12093C7F057E001D
:100371007D007C001208B3E4FD7FB912093C7D4F7A
:0C0381007FCF12093C7DFF7F6F02093C1A
:1006D0001202F1E4FD7FBD12093C7D487F1712092B
:1006E0003C7F0A7E007D007C001208B37D807F3C49
:1006F00012093C7D077F3E12093C7DFF7F381209BD
:100700003C7D077F3A12093CE4FD7F4012093C7DA5
:10071000087F4212093CE4FD7F4412093C7D087FBA
:0F0720004612093C7F017E007D007C000208B379
:10042900E4F508C2A87F2B120947781DA607E4FD49
:100439007F2912093CE4FD7F0212093C781DE63050
:10044900E42D7FB2120947EF642170237FBF12099F
:1004590047BF351B7FBA1209478F08E508D39400B7
:10046900400DE508D394045006781C761080047872
:100479001C7611E4FD7F2B12093CE4FD7F1C120957
:100489003CE4FD7F2912093CE4FD7F0212093CE4AA
:10049900FD7F2B12093CE4FD7FBA12093CE4FD7F84
:1004A900BC12093C7D017F0812093CE4FD7F08125A
:0404B900093CD2A880
:0104BD00221C
:10072F00E4F50AF50BF50A1209587F327E007D00B9
:10073F007C001208B312038DEF700280117F0A7EC6
:10074F00007D007C001208B3120551EF70101207E4
:10075F00C27F327E007D007C001208B38005750BCE
:0E076F00018009050AE50AC3940540BBAF0BE3
:01077D002259
:10083E00E4F510F50F7FB2120947BF2105751001BF
:10084E0080147F0A7E007D007C001208B3050FE540
:08085E000FC3940A40DFAF1044
:01086600226F
:030958000206D0C4
:10055100C2A87D507F3512093C7D097F1C12093CE0
:100561007D207FBD12093C7D017F0812093C7F017E
:100571007E007D007C001208B3E4FD7F0812093C77
:100581007F017E007D007C001208B312083EEF70EF
:1005910002FF227D0B7F1C12093C7DFF7FB21209F5
:1005A1003C7F017E007D007C001208B37D067F3711
:1005B10012093C7F017E007D007C001208B37D069C
:1005C1007F3712093C7F057E007D007C001208B355
:1005D1007D107F2912093CE4FD7FBD12093CD2A8A0
:0305E1007F012275
:10038D00750D01E4F50C12083EEF7005F50D020434
:10039D0026E50C9002E993FD7FC112093CE4FD7F37
:1003AD00C312093C7D047F0812093C7F017E007D4C
:1003BD00007C001208B3E4FD7F0812093C7F017E2A
:1003CD00007D007C001208B3E4F50EE50C75F01409
:1003DD00A42449F582E43402F583E582250EF582E5
:1003ED00E43583F583E493FD600E7F0512093C052A
:1003FD000EE50EC3941440D3AD0E7FB912093C7DAA
:10040D00FF7FB212093C7D047F3712093C050CE5D4
:0B041D000CC394085003020393AF0DC2
:0104280022B1
:060952007FC512094722D7
:0B093C00908100EFF0908000EDF022B1
:0B094700908100EFF0908000E0FF22A4
:0409370002192580FC
:10086700759850758920AE19AF1AAB07AA06E4F937
:10087700F8FF7EE1FDFC12077E12014D8F8B8F8DF5
:07088700D28ED2ACD2AF22E9
:0E090B00C2ACC2998F993099FDC299D2AC222C
:10088E008B0A8A0B890CAB0AAA0BA90C12013460D5
:10089E0013050CE50C7002050B14F9120134FF124E
:0508AE00090B80E222AD
:030000000205E412
:0C05E400787FE4F6D8FD75811E02062B1E
:10013400BB010689828A83E0225002E722BBFE02C9
:09014400E32289828A83E49322FC
:10077E00C2D5E830E70FB2D5E4C39BFBE49AFAE4A6
:10078E0099F9E498F8EC30E717B2D51207B41201D4
:10079E00B7E4C39BFBE49AFAE499F9E498F8800372
:1007AE001201B730D50DE4C39FFFE49EFEE49DFD1C
:0407BE00E49CFC2299
:0E014D00C3E49FFFE49EFEE49DFDE49CFC22C3
:10015B007401FF3395E0FEFDFC080808E6CF2FF68F
:10016B0018E6CE3EF618E6CD3DF618E6CC3CF62268
:1005F0000204BEE493A3F8E493A34003F68001F25F
:1006000008DFF48029E493A3F85407240CC8C3330B
:10061000C4540F4420C8834004F456800146F6DFDA
:10062000E4800B0102040810204080900931E47E30
:10063000019360BCA3FF543F30E509541FFEE493CF
:10064000A360010ECF54C025E060A840B8E493A396
:10065000FAE493A3F8E493A3C8C582C8CAC583CAC1
:10066000F0A3C8C582C8CAC583CADFE9DEE780BE79
:01093B0000BB
:10017B0075F008758200EF2FFFEE33FECD33CDCC3B
:10018B0033CCC58233C5829BED9AEC99E5829840BE
:10019B000CF582EE9BFEED9AFDEC99FC0FD5F0D69B
:1001AB00E4CEFBE4CDFAE4CCF9A88222B800C1B9C5
:1001BB000059BA002DEC8BF084CFCECDFCE5F0CB03
:1001CB00F97818EF2FFFEE33FEED33FDEC33FCEB3C
:1001DB0033FB10D703994004EB99FB0FD8E5E4F9F7
:1001EB00FA227818EF2FFFEE33FEED33FDEC33FCE4
:1001FB00C933C910D7059BE99A4007EC9BFCE99AD8
:10020B00F90FD8E0E4C9FAE4CCFB2275F010EF2F1C
:10021B00FFEE33FEED33FDCC33CCC833C810D7071C
:10022B009BEC9AE899400AED9BFDEC9AFCE899F857
:0E023B000FD5F0DAE4CDFBE4CCFAE4C8F922EA
:00000001FF
