:10000600D2BBBCB6BFDAC1EEA3BAD0A1BDDC0D0A25
:1000160000B6FEBCB6BFDAC1EEA3BA31A1A2B4FAED
:10002600C2EBB2E2CAD40D0A000932A1A2BFAAB736
:10003600A2B0E5D1E9D6A40D0A000933A1A2BFAA50
:10004600B5C60D0A000934A1A2B9D8B5C60D0A0075
:10005600202035A1A2B1B1BEA90D0A000936A1A280
:10006600C9CFBAA30D0A000937A1A2B9E3D6DD0D9F
:100076000A00A1B0B4FAC2EBB2E2CAD4A1B1C3FC81
:10008600C1EECAB6B1F0B3C9B9A60D0A00A1B0BF98
:10009600AAB7A2B0E5D1E9D6A4A1B1C3FCC1EECA04
:1000A600B6B1F0B3C9B9A60D0A00A1B0BFAAB5C6CC
:1000B600A1B1C3FCC1EECAB6B1F0B3C9B9A60D0A67
:1000C60000A1B0B9D8B5C6A1B1C3FCC1EECAB6B1DC
:1000D600F0B3C9B9A60D0A00A1B0B1B1BEA9A1B1CC
:1000E600C3FCC1EECAB6B1F0B3C9B9A60D0A00A1E8
:1000F600B0C9CFBAA3A1B1C3FCC1EECAB6B1F0B3C1
:10010600C9B9A60D0A00A1B0B9E3D6DDA1B1C3FCF9
:10011600C1EECAB6B1F0B3C9B9A60D0A00C7EBD68F
:10012600D8D0C2CAB6B1F0B7A2BFDAC1EE0D0A0086
:06093500011C00011B0083
:1004C000E4F5091208DB1208F71207C612086BE4FC
:1004D000781CF67BFF7A0079061208927BFF7A007F
:1004E00079171208927BFF7A00792F1208927BFF0E
:1004F0007A0079401208927BFF7A00794B120892B9
:100500007BFF7A0079561208927BFF7A007962129B
:1005100008927BFF7A00796D120892781CE61460CD
:10052000FA24F1601824DF60F224317020781C7600
:1005300001120733EF70E4781C763180DE12095621
:10054000781EEFF6120672E4781CF680CEE4781C72
:03055000F680C86A
:1008DB00B2C212091DB2C212091DB2C212091DB257
:0C08EB00C212091DB2C212091DB2C222C5
:1008F7007580FF7590FF75A0FF75B0FF75C0FFC2CB
:08090700C3D289D2A8D2AF22AD
:0A092A0000007F057E49DEFEDFFCC1
:0109340022A0
:0808B7008F148E138D128C11B9
:1008BF00E4F515F516F517F518781174FF12015FA9
:0B08CF00EC4D4E4F600512092A80EE30
:0108DA0022FB
:0C091D007F117ED07D1BDDFEDEFCDFFACA
:0109290022AB
:03000300020807E9
:10080700C0E0C0F0C083C082C0D075D000C000C0B7
:1008170001C002C003C004C005C006C00712042BF4
:10082700D007D006D005D004D003D002D001D00025
:0B083700D0D0D082D083D0F0D0E032CF
:10067200EF24FE601E24FE602214602C24EF603002
:1006820014603524E86039242E703D7BFF7A0079AE
:1006920078803B7BFF7A00799380337BFF7A007905
:1006A200B0120892E4F590227BFF7A0079C7801E8F
:1006B2007BFF7A0079DE80167BFF7A0079F5800E67
:1006C2007BFF7A01790C80067BFF7A01792312087D
:0206D200922272
:10024B007869616F206A696500000000000000009A
:10025B00000000006B61692066612062616E20798D
:10026B00616E207A68656E67646169206D612063D9
:10027B006520736869000000000000006B61692055
:10028B0064656E67000000000000000000000000C5
:10029B006775616E2064656E6700000000000000EA
:1002AB0000000000626569206A696E67000000004B
:1002BB0000000000000000007368616E6720686139
:1002CB006900000000000000000000006775616E0F
:1002DB0067207A686F7500000000000000000000C6
:0802EB00000201040516172FA3
:1007C600D2B57F017E007D007C001208B7C2B57FDE
:1007D600017E007D007C001208B7D2B57F017E0045
:1007E6007D007C001208B7C2A17F017E007D007CDF
:1007F600001208B7D2A17F017E007D007C000208AE
:01080600B73A
:1002F3007F0612094B7D357F171209407F0A7E0066
:100303007D007C001208B77F0612094B7D037F89AD
:100313001209407F057E007D007C001208B77D43F3
:100323007FCF1209407F057E007D007C001208B755
:100333007D027FCB1209407D0A7F11120940E4FD43
:100343007F1E1209407D3F7F191209407D487F1BA4
:100353001209407D1F7F1D1209407F0A7E007D0028
:100363007C001208B77D047FCD1209407F057E0013
:100373007D007C001208B7E4FD7FB91209407D4F70
:0C0383007FCF1209407DFF7F6F02094010
:1006D4001202F3E4FD7FBD1209407D487F17120921
:1006E400407F0A7E007D007C001208B77D807F3C3D
:1006F4001209407D077F3E1209407DFF7F381209B1
:10070400407D077F3A120940E4FD7F401209407D95
:10071400087F42120940E4FD7F441209407D087FAE
:0F072400461209407F017E007D007C000208B76D
:10042B00E4F508C2A87F2B12094B781DA607E4FD43
:10043B007F29120940E4FD7F02120940781DE63046
:10044B00E42D7FB212094BEF642170237FBF120999
:10045B004BBF351B7FBA12094B8F08E508D39400AD
:10046B00400DE508D394045006781C761080047870
:10047B001C7611E4FD7F2B120940E4FD7F1C120951
:10048B0040E4FD7F29120940E4FD7F02120940E49C
:10049B00FD7F2B120940E4FD7FBA120940E4FD7F7A
:1004AB00BC1209407D017F08120940E4FD7F081250
:0404BB000940D2A87A
:0104BF00221A
:10073300E4F50AF50BF50A12095C7F327E007D00B1
:100743007C001208B712038FEF700280117F0A7EBC
:10075300007D007C001208B7120553EF70101207DA
:10076300C67F327E007D007C001208B78005750BC2
:0E077300018009050AE50AC3940540BBAF0BDF
:010781002255
:10084200E4F510F50F7FB212094BBF2105751001B7
:1008520080147F0A7E007D007C001208B7050FE538
:080862000FC3940A40DFAF1040
:01086A00226B
:03095C000206D4BC
:10055300C2A87D507F351209407D097F1C120940D6
:100563007D207FBD1209407D017F081209407F0174
:100573007E007D007C001208B7E4FD7F081209406D
:100583007F017E007D007C001208B7120842EF70E5
:1005930002FF227D0B7F1C1209407DFF7FB21209EF
:1005A300407F017E007D007C001208B77D067F3707
:1005B3001209407F017E007D007C001208B77D0692
:1005C3007F371209407F057E007D007C001208B74B
:1005D3007D107F29120940E4FD7FBD120940D2A896
:0305E3007F012273
:10038F00750D01E4F50C120842EF7005F50D02042E
:10039F0028E50C9002EB93FD7FC1120940E4FD7F2D
:1003AF00C31209407D047F081209407F017E007D42
:1003BF00007C001208B7E4FD7F081209407F017E20
:1003CF00007D007C001208B7E4F50EE50C75F01403
:1003DF00A4244BF582E43402F583E582250EF582E1
:1003EF00E43583F583E493FD600E7F051209400524
:1003FF000EE50EC3941440D3AD0E7FB91209407DA4
:10040F00FF7FB21209407D047F37120940050CE5CA
:0B041F000CC394085003020395AF0DBE
:01042A0022AF
:060956007FC512094B22CF
:0B094000908100EFF0908000EDF022AD
:0B094B00908100EFF0908000E0FF22A0
:04093B0002192580F8
:10086B00759850758920AE19AF1AAB07AA06E4F933
:10087B00F8FF7EE1FDFC12078212014F8F8B8F8DEB
:07088B00D28ED2ACD2AF22E5
:0E090F00C2ACC2998F993099FDC299D2AC2228
:100892008B0A8A0B890CAB0AAA0BA90C12013660CF
:1008A20013050CE50C7002050B14F9120136FF1248
:0508B200090F80E222A5
:030000000205E610
:0C05E600787FE4F6D8FD75811E02062D1A
:10013600BB010689828A83E0225002E722BBFE02C7
:09014600E32289828A83E49322FA
:10078200C2D5E830E70FB2D5E4C39BFBE49AFAE4A2
:1007920099F9E498F8EC30E717B2D51207B81201CC
:1007A200B9E4C39BFBE49AFAE499F9E498F880036C
:1007B2001201B930D50DE4C39FFFE49EFEE49DFD16
:0407C200E49CFC2295
:0E014F00C3E49FFFE49EFEE49DFDE49CFC22C1
:10015D007401FF3395E0FEFDFC080808E6CF2FF68D
:10016D0018E6CE3EF618E6CD3DF618E6CC3CF62266
:1005F2000204C0E493A3F8E493A34003F68001F25B
:1006020008DFF48029E493A3F85407240CC8C33309
:10061200C4540F4420C8834004F456800146F6DFD8
:10062200E4800B0102040810204080900935E47E2A
:10063200019360BCA3FF543F30E509541FFEE493CD
:10064200A360010ECF54C025E060A840B8E493A394
:10065200FAE493A3F8E493A3C8C582C8CAC583CABF
:10066200F0A3C8C582C8CAC583CADFE9DEE780BE77
:01093F0000B7
:10017D0075F008758200EF2FFFEE33FECD33CDCC39
:10018D0033CCC58233C5829BED9AEC99E5829840BC
:10019D000CF582EE9BFEED9AFDEC99FC0FD5F0D699
:1001AD00E4CEFBE4CDFAE4CCF9A88222B800C1B9C3
:1001BD000059BA002DEC8BF084CFCECDFCE5F0CB01
:1001CD00F97818EF2FFFEE33FEED33FDEC33FCEB3A
:1001DD0033FB10D703994004EB99FB0FD8E5E4F9F5
:1001ED00FA227818EF2FFFEE33FEED33FDEC33FCE2
:1001FD00C933C910D7059BE99A4007EC9BFCE99AD6
:10020D00F90FD8E0E4C9FAE4CCFB2275F010EF2F1A
:10021D00FFEE33FEED33FDCC33CCC833C810D7071A
:10022D009BEC9AE899400AED9BFDEC9AFCE899F855
:0E023D000FD5F0DAE4CDFBE4CCFAE4C8F922E8
:00000001FF
