:10000600D2BBBCB6BFDAC1EEA3BAD0A1BDDC0D0A25
:1000160000B6FEBCB6BFDAC1EEA3BA31A1A2B4FAED
:10002600C2EBB2E2CAD40D0A000932A1A2BFAAB736
:10003600A2B0E5D1E9D6A40D0A000933A1A2BFAA50
:10004600B5C60D0A000934A1A2B9D8B5C60D0A0075
:10005600202035A1A2B1B1BEA90D0A000936A1A280
:10006600C9CFBAA30D0A000937A1A2B9E3D6DD0D9F
:100076000A00CAD5B5BD0D0A00A1B0B4FAC2EBB2EA
:10008600E2CAD4A1B1C3FCC1EECAB6B1F0B3C9B9D4
:10009600A60D0A00A1B0BFAAB7A2B0E5D1E9D6A4C1
:1000A600A1B1C3FCC1EECAB6B1F0B3C9B9A60D0A77
:1000B60000A1B0BFAAB5C6A1B1C3FCC1EECAB6B114
:1000C600F0B3C9B9A60D0A00A1B0B9D8B5C6A1B199
:1000D600C3FCC1EECAB6B1F0B3C9B9A60D0A00A1F8
:1000E600B0B1B1BEA9A1B1C3FCC1EECAB6B1F0B3FD
:1000F600C9B9A60D0A00A1B0C9CFBAA3A1B1C3FC64
:10010600C1EECAB6B1F0B3C9B9A60D0A00A1B0B91D
:10011600E3D6DDA1B1C3FCC1EECAB6B1F0B3C9B92D
:10012600A60D0A00C7EBD6D8D0C2CAB6B1F0B7A2A0
:10013600BFDAC1EE0D0A00C7EBCBB5B3F6D2BBBC36
:08014600B6BFDAC1EE0D0A009C
:06096E00011C00011B004A
:1004D800E4F5091209141209301207FF1208A4E4FE
:1004E800781CF67BFF7A0079061208CB7BFF7A002E
:1004F80079171208CB7BFF7A00792F1208CB7BFF84
:100508007A0079401208CB7BFF7A00794B1208CB2E
:100518007BFF7A0079561208CB7BFF7A007962124A
:1005280008CB7BFF7A00796D1208CB781CE6146043
:10053800FA24F1601824DF60F224317020781C76E8
:100548000112076CEF70E4781C763180DE12098F97
:10055800781EEFF612068AE4781CF680CEE4781C42
:03056800F680C852
:10091400B2C2120956B2C2120956B2C2120956B272
:0C092400C2120956B2C2120956B2C22219
:100930007580FF7590FF75A0FF75B0FF75C0FFC291
:08094000C3D289D2A8D2AF2274
:0A09630000007F057E49DEFEDFFC88
:01096D002267
:0808F0008F148E138D128C1180
:1008F800E4F515F516F517F518781174FF12017758
:0B090800EC4D4E4F600512096380EEBD
:0109130022C1
:0C0956007F117ED07D1BDDFEDEFCDFFA91
:010962002272
:03000300020840B0
:10084000C0E0C0F0C083C082C0D075D000C000C07E
:1008500001C002C003C004C005C006C007120443A3
:10086000D007D006D005D004D003D002D001D000EC
:0B087000D0D0D082D083D0F0D0E03296
:10068A008F0AE50A700D751B01C2C27BFF7A0079D9
:10069A0078806CE51B64017060F51BD2C2E50A2400
:1006AA00FE601E24FE602214602724EF602B146073
:1006BA003024E86034242E70387BFF7A00797F80FA
:1006CA003E7BFF7A00799A80367BFF7A0079B78081
:1006DA002E7BFF7A0079CE80267BFF7A0079E5802F
:1006EA001E7BFF7A0079FC80167BFF7A01791380E2
:1006FA000E7BFF7A01792A80067BFF7A01793D1207
:03070A0008CB22F7
:100263007869616F206A6965000000000000000082
:10027300000000006B61692066612062616E207975
:10028300616E207A68656E67646169206D612063C1
:100293006520736869000000000000006B6169203D
:1002A30064656E67000000000000000000000000AD
:1002B3006775616E2064656E6700000000000000D2
:1002C30000000000626569206A696E670000000033
:1002D30000000000000000007368616E6720686121
:1002E3006900000000000000000000006775616EF7
:1002F30067207A686F7500000000000000000000AE
:08030300000201040516172F8A
:1007FF00D2B57F057E007D007C001208F0C2B57F68
:10080F00057E007D007C001208F0D2B57F057E00CA
:10081F007D007C001208F0C2A17F057E007D007C68
:10082F00001208F0D2A17F057E007D007C00020837
:01083F00F0C8
:10030B007F061209847D357F171209797F0A7E00DB
:10031B007D007C001208F07F061209847D037F8923
:10032B001209797F057E007D007C001208F07D4369
:10033B007FCF1209797F057E007D007C001208F0CB
:10034B007D027FCB1209797D0A7F11120979E4FDB9
:10035B007F1E1209797D3F7F191209797D487F1B1A
:10036B001209797D1F7F1D1209797F0A7E007D009E
:10037B007C001208F07D047FCD1209797F057E0089
:10038B007D007C001208F0E4FD7FB91209797D4FE6
:0C039B007FCF1209797DFF7F6F02097986
:10070D0012030BE4FD7FBD1209797D487F17120995
:10071D00797F0A7E007D007C001208F07D807F3C91
:10072D001209797D077F3E1209797DFF7F38120905
:10073D00797D077F3A120979E4FD7F401209797DB1
:10074D00087F42120979E4FD7F441209797D087F03
:0F075D00461209797F017E007D007C000208F0C2
:10044300E4F508C2A87F2B120984781DA607E4FDF2
:100453007F29120979E4FD7F02120979781DE630BC
:10046300E42D7FB2120984EF642170237FBF120948
:1004730084BF351B7FBA1209848F08E508D3940023
:10048300400DE508D394045006781C761080047858
:100493001C7611E4FD7F2B120979E4FD7F1C120900
:1004A30079E4FD7F29120979E4FD7F02120979E4D9
:1004B300FD7F2B120979E4FD7FBA120979E4FD7FF0
:1004C300BC1209797D017F08120979E4FD7F0812C6
:0404D3000979D2A829
:0104D7002202
:10076C00E4F50AF50BF50A1209957F327E007D003F
:10077C007C001208F01203A7EF700280117F0A7E32
:10078C00007D007C001208F012056BEF7010120750
:10079C00FF7F327E007D007C001208F08005750B17
:0E07AC00018009050AE50AC3940540BBAF0BA6
:0107BA00221C
:10087B00E4F510F50F7FB2120984BF210575100145
:10088B0080147F0A7E007D007C001208F0050FE5C6
:08089B000FC3940A40DFAF1007
:0108A3002232
:0309950002070D49
:10056B00C2A87D557F351209797D097F1C12097947
:10057B007D207FBD1209797D017F081209797F01EA
:10058B007E007D007C001208F0E4FD7F08120979E3
:10059B007F017E007D007C001208F012087BEF705B
:1005AB0002FF227D0B7F1C1209797DFF7FB212099E
:1005BB00797F017E007D007C001208F07D067F377D
:1005CB001209797F017E007D007C001208F07D0608
:1005DB007F371209797F057E007D007C001208F0C1
:1005EB007D107F29120979E4FD7FBD120979D2A80C
:0305FB007F01225B
:1003A700750D01E4F50C12087BEF7005F50D0204DD
:1003B70040E50C90030393FD7FC1120979E4FD7FAB
:1003C700C31209797D047F081209797F017E007DB8
:1003D700007C001208F0E4FD7F081209797F017E96
:1003E700007D007C001208F0E4F50EE50C75F014B2
:1003F700A42463F582E43402F583E582250EF582B1
:10040700E43583F583E493FD600E7F0512097905D2
:100417000EE50EC3941440D3AD0E7FB91209797D52
:10042700FF7FB21209797D047F37120979050CE540
:0B0437000CC3940850030203ADAF0D8E
:010442002297
:06098F007FC5120984225D
:0B097900908100EFF0908000EDF02274
:0B098400908100EFF0908000E0FF2267
:0409740002192580BF
:1008A400759850758920AE19AF1AAB07AA06E4F9FA
:1008B400F8FF7EE1FDFC1207BB1201678F8B8F8D61
:0708C400D28ED2ACD2AF22AC
:0E094800C2ACC2998F993099FDC299D2AC22EF
:1008CB008B0B8A0C890DAB0BAA0CA90D12014E6078
:1008DB0013050DE50D7002050C14F912014EFF12F4
:0508EB00094880E22233
:030000000205FEF8
:0C05FE00787FE4F6D8FD75811E020645EA
:10014E00BB010689828A83E0225002E722BBFE02AF
:09015E00E32289828A83E49322E2
:1007BB00C2D5E830E70FB2D5E4C39BFBE49AFAE469
:1007CB0099F9E498F8EC30E717B2D51207F112015A
:1007DB00D1E4C39BFBE49AFAE499F9E498F880031B
:1007EB001201D130D50DE4C39FFFE49EFEE49DFDC5
:0407FB00E49CFC225C
:0E016700C3E49FFFE49EFEE49DFDE49CFC22A9
:100175007401FF3395E0FEFDFC080808E6CF2FF675
:1001850018E6CE3EF618E6CD3DF618E6CC3CF6224E
:10060A000204D8E493A3F8E493A34003F68001F22A
:10061A0008DFF48029E493A3F85407240CC8C333F1
:10062A00C4540F4420C8834004F456800146F6DFC0
:10063A00E4800B010204081020408090096EE47ED9
:10064A00019360BCA3FF543F30E509541FFEE493B5
:10065A00A360010ECF54C025E060A840B8E493A37C
:10066A00FAE493A3F8E493A3C8C582C8CAC583CAA7
:10067A00F0A3C8C582C8CAC583CADFE9DEE780BE5F
:01097800007E
:1001950075F008758200EF2FFFEE33FECD33CDCC21
:1001A50033CCC58233C5829BED9AEC99E5829840A4
:1001B5000CF582EE9BFEED9AFDEC99FC0FD5F0D681
:1001C500E4CEFBE4CDFAE4CCF9A88222B800C1B9AB
:1001D5000059BA002DEC8BF084CFCECDFCE5F0CBE9
:1001E500F97818EF2FFFEE33FEED33FDEC33FCEB22
:1001F50033FB10D703994004EB99FB0FD8E5E4F9DD
:10020500FA227818EF2FFFEE33FEED33FDEC33FCC9
:10021500C933C910D7059BE99A4007EC9BFCE99ABD
:10022500F90FD8E0E4C9FAE4CCFB2275F010EF2F02
:10023500FFEE33FEED33FDCC33CCC833C810D70702
:100245009BEC9AE899400AED9BFDEC9AFCE899F83D
:0E0255000FD5F0DAE4CDFBE4CCFAE4C8F922D0
:00000001FF
