:06079200011F00011E0022
:10055D00E4F5091207381207541205EA1206C8808D
:10056D002C781FE61460FA24F1601824DF60F22461
:10057D00317020781F760112050EEF70E4781F762A
:10058D003180DE1207B37821EFF6120666E4781F8C
:09059D00F680CEE4781FF680C858
:10073800B2C212077AB2C212077AB2C212077AB2EA
:0C074800C212077AB2C212077AB2C222B3
:100754007580FF7590FF75A0FF75B0FF75C0FFC26F
:08076400C3D289D2A8D2AF2252
:0A07870000007F057E49DEFEDFFC66
:010791002245
:080714008F148E138D128C115D
:10071C00E4F515F516F517F518781174FF12002F7E
:0B072C00EC4D4E4F600512078780EE79
:01073700229F
:0C077A007F117ED07D1BDDFEDEFCDFFA6F
:010786002250
:0300030002062BC7
:10062B00C0E0C0F0C083C082C0D075D000C000C095
:10063B0001C002C003C004C005C006C0071202FB04
:10064B00D007D006D005D004D003D002D001D00003
:0B065B00D0D0D082D083D0F0D0E032AD
:10066600EF24FE601A24FE601A14601B24EF601B40
:1006760014601C24E8601C242E701D7FBF80167F2A
:10068600DF80127FFE800E7FFD800A7FFB80067F63
:09069600F780027FEF12076C22CD
:10011B007869616F206A69650000000000000000CB
:10012B00000000006A696120737500000000000088
:10013B0000000000000000006A69616E207375000A
:10014B000000000000000000000000007169616EFB
:10015B00206A696E00000000000000000000000033
:10016B00686F7520747569000000000000000000C6
:10017B00000000007A756F207A6875616E000000D0
:10018B000000000000000000796F75207A6875612F
:10019B006E000000000000000000000074696E6734
:1001AB00207A6869000000000000000000000000D9
:0801BB00000201040516172FD4
:1005EA00D2B57F017E007D007C00120714C2B57F60
:1005FA00017E007D007C00120714D2B57F017E00C7
:10060A007D007C00120714C2A17F017E007D007C60
:10061A0000120714D2A17F017E007D007C00020730
:01062A0014BB
:1001C3007F061207A87D357F1712079D7F0A7E00E1
:1001D3007D007C001207147F061207A87D037F8928
:1001E30012079D7F057E007D007C001207147D436E
:1001F3007FCF12079D7F057E007D007C00120714D0
:100203007D027FCB12079D7D0A7F1112079DE4FDBE
:100213007F1E12079D7D3F7F1912079D7D487F1B1F
:1002230012079D7D1F7F1D12079D7F0A7E007D00A3
:100233007C001207147D047FCD12079D7F057E008D
:100243007D007C00120714E4FD7FB912079D7D4FEA
:0C0253007FCF12079D7DFF7F6F02079D8B
:1004AF001201C3E4FD7FBD12079D7D487F17120720
:1004BF009D7F0A7E007D007C001207147D807F3CAB
:1004CF0012079D7D077F3E12079D7DFF7F38120724
:1004DF009D7D077F3A12079DE4FD7F4012079D7DAA
:1004EF00087F4212079DE4FD7F4412079D7D087F20
:0F04FF004612079D7F017E007D007C00020714DE
:1002FB00E4F508C2A87F2B1207A87820A607E4FD17
:10030B007F2912079DE4FD7F0212079D7820E630BE
:10031B00E42D7FB21207A8EF642170237FBF120771
:10032B00A8BF351B7FBA1207A88F08E508D3940026
:10033B00400DE508D394045006781F76108004789E
:10034B001F7611E4FD7F2B12079DE4FD7F1C120726
:10035B009DE4FD7F2912079DE4FD7F0212079DE4BA
:10036B00FD7F2B12079DE4FD7FBA12079DE4FD7FF5
:10037B00BC12079D7D017F0812079DE4FD7F0812CB
:04038B00079DD2A850
:01038F00224B
:10050E00E4F50AF50BF50A1207B97F327E007D007D
:10051E007C0012071412025FEF700280117F0A7EB8
:10052E00007D007C00120714120390EF701012056C
:10053E00EA7F327E007D007C001207148005750B69
:0E054E00018009050AE50AC3940540BBAF0B06
:01055C00227C
:10069F00E4F510F50F7FB21207A8BF210575100101
:1006AF0080147F0A7E007D007C00120714050FE581
:0806BF000FC3940A40DFAF10E5
:0106C7002210
:0307B9000204AF88
:10039000C2A87D4C7F3512079D7D097F1C12079DE9
:1003A0007D207FBD12079D7D017F0812079D7F0183
:1003B0007E007D007C00120714E4FD7F0812079D7B
:1003C0007F017E007D007C0012071412069FEF70F3
:1003D00002FF227D0B7F1C12079D7DFF7FB212075B
:1003E0009D7F017E007D007C001207147D067F3713
:1003F00012079D7F017E007D007C001207147D06A0
:100400007F3712079D7F057E007D007C0012071458
:100410007D107F2912079DE4FD7FBD12079DD2A8A4
:030420007F012237
:10025F00750D01E4F50C12069FEF7005F50D020206
:10026F00F8E50C9001BB93FD7FC112079DE4FD7F64
:10027F00C312079D7D047F0812079D7F017E007DBD
:10028F00007C00120714E4FD7F0812079D7F017E9A
:10029F00007D007C00120714E4F50EE50C75F014D8
:1002AF00A4241BF582E43401F583E582250EF58243
:1002BF00E43583F583E493FD600E7F0512079D05FA
:1002CF000EE50EC3941440D3AD0E7FB912079D7D7A
:1002DF00FF7FB212079D7D047F3712079D050CE546
:0B02EF000CC394085003020265AF0D21
:0102FA0022E1
:0607B3007FC51207A82219
:0B079D00908100EFF0908000EDF02252
:0B07A800908100EFF0908000E0FF2245
:04079800021C25809A
:1006C800759850758920AE1CAF1DAB07AA06E4F9D2
:1006D800F8FF7EE1FDFC1205A612001F8F8B8F8D9F
:0706E800D28ED2ACD2AF228A
:0E076C00C2ACC2998F993099FDC299D2AC22CD
:1006EF008B198A1A891BAB19AA1AA91B120006604B
:1006FF0013051BE51B7002051A14F9120006FF12F1
:05070F00076C80E222EE
:03000000020423D4
:0C042300787FE4F6D8FD75812102046AA0
:10000600BB010689828A83E0225002E722BBFE02F8
:09001600E32289828A83E493222B
:1005A600C2D5E830E70FB2D5E4C39BFBE49AFAE480
:1005B60099F9E498F8EC30E717B2D51205DC120089
:1005C60089E4C39BFBE49AFAE499F9E498F880037A
:1005D60012008930D50DE4C39FFFE49EFEE49DFD25
:0405E600E49CFC2273
:0E001F00C3E49FFFE49EFEE49DFDE49CFC22F2
:10002D007401FF3395E0FEFDFC080808E6CF2FF6BE
:10003D0018E6CE3EF618E6CD3DF618E6CC3CF62297
:10042F0002055DE493A3F8E493A34003F68001F281
:10043F0008DFF48029E493A3F85407240CC8C333CE
:10044F00C4540F4420C8834004F456800146F6DF9D
:10045F00E4800B0102040810204080900792E47E94
:10046F00019360BCA3FF543F30E509541FFEE49392
:10047F00A360010ECF54C025E060A840B8E493A359
:10048F00FAE493A3F8E493A3C8C582C8CAC583CA84
:10049F00F0A3C8C582C8CAC583CADFE9DEE780BE3C
:01079C00005C
:10004D0075F008758200EF2FFFEE33FECD33CDCC6A
:10005D0033CCC58233C5829BED9AEC99E5829840ED
:10006D000CF582EE9BFEED9AFDEC99FC0FD5F0D6CA
:10007D00E4CEFBE4CDFAE4CCF9A88222B800C1B9F4
:10008D000059BA002DEC8BF084CFCECDFCE5F0CB32
:10009D00F97818EF2FFFEE33FEED33FDEC33FCEB6B
:1000AD0033FB10D703994004EB99FB0FD8E5E4F926
:1000BD00FA227818EF2FFFEE33FEED33FDEC33FC13
:1000CD00C933C910D7059BE99A4007EC9BFCE99A07
:1000DD00F90FD8E0E4C9FAE4CCFB2275F010EF2F4C
:1000ED00FFEE33FEED33FDCC33CCC833C810D7074C
:1000FD009BEC9AE899400AED9BFDEC9AFCE899F887
:0E010D000FD5F0DAE4CDFBE4CCFAE4C8F92219
:00000001FF
