:10000600D2BBBCB6BFDAC1EEA3BAD0A1BDDC0D0A25
:1000160000B6FEBCB6BFDAC1EEA3BA31A1A2B4FAED
:10002600C2EBB2E2CAD40D0A000932A1A2BFAAB736
:10003600A2B0E5D1E9D6A40D0A000933A1A2BFAA50
:10004600B5C60D0A000934A1A2B9D8B5C60D0A0075
:10005600202035A1A2B1B1BEA90D0A000936A1A280
:10006600C9CFBAA30D0A000937A1A2B9E3D6DD0D9F
:100076000A00A1B0B4FAC2EBB2E2CAD4A1B1C3FC81
:10008600C1EECAB6B1F0B3C9B9A60D0A00A1B0BF98
:10009600AAB7A2B0E5D1E9D6A4A1B1C3FCC1EECA04
:1000A600B6B1F0B3C9B9A60D0A00A1B0BFAAB5C6CC
:1000B600A1B1C3FCC1EECAB6B1F0B3C9B9A60D0A67
:1000C60000A1B0B9D8B5C6A1B1C3FCC1EECAB6B1DC
:1000D600F0B3C9B9A60D0A00A1B0B1B1BEA9A1B1CC
:1000E600C3FCC1EECAB6B1F0B3C9B9A60D0A00A1E8
:1000F600B0C9CFBAA3A1B1C3FCC1EECAB6B1F0B3C1
:10010600C9B9A60D0A00A1B0B9E3D6DDA1B1C3FCF9
:10011600C1EECAB6B1F0B3C9B9A60D0A00C7EBD68F
:10012600D8D0C2CAB6B1F0B7A2BFDAC1EE0D0A0086
:10013600C7EBCBB5B3F6D2BBBCB6BFDAC1EE0D0A80
:0101460000B8
:06097800011C00011B0040
:10056500E4F50912091E12093A1208091208AEE447
:10057500781CF67BFF7A0079061208D57BFF7A0096
:1005850079171208D57BFF7A00792F1208D57BFFE2
:100595007A0079401208D57BFF7A00794B1208D58D
:1005A5007BFF7A0079561208D57BFF7A00796212B3
:1005B50008D57BFF7A00796D1208D5781CE61460A2
:1005C500FA24F1601824DF60F224317020781C765B
:1005D50001120776EF70E4781C763180DE120999F6
:1005E500781EEFF61204D1E4781CF680CEE4781C70
:0305F500F680C8C5
:10091E00B2C2120960B2C2120960B2C2120960B24A
:0C092E00C2120960B2C2120960B2C222FB
:10093A007580FF7590FF75A0FF75B0FF75C0FFC287
:08094A00C3D289D2A8D2AF226A
:0A096D0000007F057E49DEFEDFFC7E
:01097700225D
:0808FA008F148E138D128C1176
:10090200E4F515F516F517F518781174FF12017054
:0B091200EC4D4E4F600512096D80EEA9
:01091D0022B7
:0C0960007F117ED07D1BDDFEDEFCDFFA87
:01096C002268
:0300030002084AA6
:10084A00C0E0C0F0C083C082C0D075D000C000C074
:10085A0001C002C003C004C005C006C00712043CA0
:10086A00D007D006D005D004D003D002D001D000E2
:0B087A00D0D0D082D083D0F0D0E0328C
:1004D100EF7006751B01C2C222E51B6401707BF53A
:1004E1001BD2C2EF24FE602224FE602A1460332452
:1004F100EF603B14604424E8604C242E70547BFF71
:100501007A0079781208D5C2C1227BFF7A007993EB
:100511001208D5C2A7227BFF7A0079B01208D5C292
:10052100A6227BFF7A0079C71208D5D2A6227BFFCB
:100531007A0079DE1208D5C2A5227BFF7A0079F50F
:100541001208D5C2A4227BFF7A01790C1208D5C208
:10055100A3227BFF7A01792380067BFF7A0179361A
:040561001208D52285
:10025C007869616F206A6965000000000000000089
:10026C00000000006B61692066612062616E20797C
:10027C00616E207A68656E67646169206D612063C8
:10028C006520736869000000000000006B61692044
:10029C0064656E67000000000000000000000000B4
:1002AC006775616E2064656E6700000000000000D9
:1002BC0000000000626569206A696E67000000003A
:1002CC0000000000000000007368616E6720686128
:1002DC006900000000000000000000006775616EFE
:1002EC0067207A686F7500000000000000000000B5
:0802FC00000201040516172F92
:10080900D2B57F017E007D007C001208FAC2B57F57
:10081900017E007D007C001208FAD2B57F017E00BE
:100829007D007C001208FAC2A17F017E007D007C58
:10083900001208FAD2A17F017E007D007C00020827
:01084900FAB4
:100304007F0612098E7D357F171209837F0A7E00CE
:100314007D007C001208FA7F0612098E7D037F8916
:100324001209837F057E007D007C001208FA7D435C
:100334007FCF1209837F057E007D007C001208FABE
:100344007D027FCB1209837D0A7F11120983E4FDAC
:100354007F1E1209837D3F7F191209837D487F1B0D
:100364001209837D1F7F1D1209837F0A7E007D0091
:100374007C001208FA7D047FCD1209837F057E007C
:100384007D007C001208FAE4FD7FB91209837D4FD9
:0C0394007FCF1209837DFF7F6F02098379
:10071700120304E4FD7FBD1209837D487F17120988
:10072700837F0A7E007D007C001208FA7D807F3C73
:100737001209837D077F3E1209837DFF7F381209E7
:10074700837D077F3A120983E4FD7F401209837D89
:10075700087F42120983E4FD7F441209837D087FE5
:0F076700461209837F017E007D007C000208FAA4
:10043C00E4F508C2A87F2B12098E781DA607E4FDEF
:10044C007F29120983E4FD7F02120983781DE630AF
:10045C00E42D7FB212098EEF642170237FBF120945
:10046C008EBF351B7FBA12098E8F08E508D3940016
:10047C00400DE508D394045006781C76108004785F
:10048C001C7611E4FD7F2B120983E4FD7F1C1209FD
:10049C0083E4FD7F29120983E4FD7F02120983E4C2
:1004AC00FD7F2B120983E4FD7FBA120983E4FD7FE3
:1004BC00BC1209837D017F08120983E4FD7F0812B9
:0404CC000983D2A826
:0104D0002209
:10077600E4F50AF50BF50A12099F7F327E007D002B
:100786007C001208FA1203A0EF700280117F0A7E25
:10079600007D007C001208FA1205F8EF70101208AE
:1007A600097F327E007D007C001208FA8005750BF9
:0E07B600018009050AE50AC3940540BBAF0B9C
:0107C4002212
:10088500E4F510F50F7FB212098EBF210575100131
:1008950080147F0A7E007D007C001208FA050FE5B2
:0808A5000FC3940A40DFAF10FD
:0108AD002228
:03099F0002071735
:1005F800C2A87D557F351209837D097F1C120983A6
:100608007D207FBD1209837D017F081209837F0148
:100618007E007D007C001208FAE4FD7F0812098341
:100628007F017E007D007C001208FA120885EF70B9
:1006380002FF227D0B7F1C1209837DFF7FB2120906
:10064800837F017E007D007C001208FA7D067F37DB
:100658001209837F017E007D007C001208FA7D0666
:100668007F371209837F057E007D007C001208FA1F
:100678007D107F29120983E4FD7FBD120983D2A86A
:030688007F0122CD
:1003A000750D01E4F50C120885EF7005F50D0204DA
:1003B00039E50C9002FC93FD7FC1120983E4FD7FB7
:1003C000C31209837D047F081209837F017E007DAB
:1003D000007C001208FAE4FD7F081209837F017E89
:1003E000007D007C001208FAE4F50EE50C75F014AF
:1003F000A4245CF582E43402F583E582250EF582BF
:10040000E43583F583E493FD600E7F0512098305CF
:100410000EE50EC3941440D3AD0E7FB91209837D4F
:10042000FF7FB21209837D047F37120983050CE533
:0B0430000CC3940850030203A6AF0D9C
:01043B00229E
:060999007FC512098E2249
:0B098300908100EFF0908000EDF0226A
:0B098E00908100EFF0908000E0FF225D
:04097E0002192580B5
:1008AE00759850758920AE19AF1AAB07AA06E4F9F0
:1008BE00F8FF7EE1FDFC1207C51201608F8B8F8D54
:0708CE00D28ED2ACD2AF22A2
:0E095200C2ACC2998F993099FDC299D2AC22E5
:1008D5008B0A8A0B890CAB0AAA0BA90C120147607B
:1008E50013050CE50C7002050B14F9120147FF12F4
:0508F500095280E2221F
:0300000002068B6A
:0C068B00787FE4F6D8FD75811E0206D2CF
:10014700BB010689828A83E0225002E722BBFE02B6
:09015700E32289828A83E49322E9
:1007C500C2D5E830E70FB2D5E4C39BFBE49AFAE45F
:1007D50099F9E498F8EC30E717B2D51207FB120146
:1007E500CAE4C39BFBE49AFAE499F9E498F8800318
:1007F5001201CA30D50DE4C39FFFE49EFEE49DFDC2
:04080500E49CFC2251
:0E016000C3E49FFFE49EFEE49DFDE49CFC22B0
:10016E007401FF3395E0FEFDFC080808E6CF2FF67C
:10017E0018E6CE3EF618E6CD3DF618E6CC3CF62255
:10069700020565E493A3F8E493A34003F68001F20F
:1006A70008DFF48029E493A3F85407240CC8C33364
:1006B700C4540F4420C8834004F456800146F6DF33
:1006C700E4800B0102040810204080900978E47E42
:1006D700019360BCA3FF543F30E509541FFEE49328
:1006E700A360010ECF54C025E060A840B8E493A3EF
:1006F700FAE493A3F8E493A3C8C582C8CAC583CA1A
:10070700F0A3C8C582C8CAC583CADFE9DEE780BED1
:010982000074
:10018E0075F008758200EF2FFFEE33FECD33CDCC28
:10019E0033CCC58233C5829BED9AEC99E5829840AB
:1001AE000CF582EE9BFEED9AFDEC99FC0FD5F0D688
:1001BE00E4CEFBE4CDFAE4CCF9A88222B800C1B9B2
:1001CE000059BA002DEC8BF084CFCECDFCE5F0CBF0
:1001DE00F97818EF2FFFEE33FEED33FDEC33FCEB29
:1001EE0033FB10D703994004EB99FB0FD8E5E4F9E4
:1001FE00FA227818EF2FFFEE33FEED33FDEC33FCD1
:10020E00C933C910D7059BE99A4007EC9BFCE99AC4
:10021E00F90FD8E0E4C9FAE4CCFB2275F010EF2F09
:10022E00FFEE33FEED33FDCC33CCC833C810D70709
:10023E009BEC9AE899400AED9BFDEC9AFCE899F844
:0E024E000FD5F0DAE4CDFBE4CCFAE4C8F922D7
:00000001FF
