:10033C00026D0000016F000170000526344310109F
:08034C000105213443101001EA
:10030000E4FDFCC3ED9FEC9E50070DBD00010C8089
:10031000F2E4FCFDC3ED9FEC9E50070DBD00010C07
:0203200080F269
:0103220022B8
:0B03E300EFD394004004001F80F622BE
:10035500759858758921758DFD758BFDD28EC2AB4B
:07036500D2ACD2BCD2AF22E2
:030023000202DBFB
:1002DB00C0E0C0D075D018309816744D252BF8A6F9
:1002EB0099C298052BE52BB42006752B00752C01B4
:0502FB00D0D0D0E0327C
:080003008F993099FDC299228A
:10019A007F641203E3C295D294C2937B007A0079FA
:1001AA0026750E057F3012021F7A00792112021875
:1001BA007D017F2112000E7D017F2212000EE4FDD7
:1001CA007F2512000E7D207F3112000E7D077F26CB
:0301DA0002000E12
:10032300E4FEEF339292EF25E0FFD293A291E43300
:080333004207C2930EBE08EA66
:01033B00229F
:0C03D600C294120323E4FF120323D2940C
:0103E20022F8
:10000E00C294120323AC07AF05120323D294AF049C
:01001E0022BF
:060251008B0E8A0F8910DC
:10025700C294120323AD07E4FCECC395115017E4D5
:10026700FF120323AB0EAA0FA9108C82758300EF30
:0A0277001201F60C80E3D294AF05EB
:01028100225A
:070218007B00750E057F2A33
:06021F008B0B8A0C890D17
:10022500C294120323AD07E4FCECC3950E5018AB42
:100235000B050DE50DAA0C7002050C14F91201DD74
:0B024500FF1203230C80E2D294AF05EF
:01025000228B
:10036C00C2957D0F7F2012000ED2957F820203E38F
:060282008B0A8A0B890CB7
:10028800E4FB7F071203D68F20300612C295AB0A13
:10029800AA0BA90C7511207F611202517B01AD20B8
:0702A8007F2712000EAF03D7
:0102AF00222C
:1002B0008B128A138914C2957A007926120218AB20
:1002C00012AA13A914750E207FA012021F7D0E7FA3
:0B02D0002012000ED2957F0A0203E30B
:10037C00758901758CFF758ACDD2AFD2A9D28C222A
:03000B000201529D
:10015200C0E0C0D0C3E56E956FE56D94005004D247
:10016200A48002C2A4C3E56E9570E56D94005004AC
:10017200D2A58002C2A5056EE56E7002056DC3941C
:1001820064E56D94004006756D00756E00758CFF18
:08019200758ACDD0D0D0E03217
:0E03C800D2A0D2A1D2A2D2A3E4F56FF570228A
:0F038C00C2A0D2A1C2A2D2A3756F417570412247
:0F039B00D2A0C2A1D2A2C2A3756F46757046222E
:0F03AA00D2A0C2A1D2A2C2A3756F267570412244
:0F03B900D2A0C2A1D2A2C2A3756F417570262235
:10002600E4F508F50912019AC2947FE21203237FD0
:10003600E1120323D2947F587E0212030012037C3E
:1000460012035512036C7B007A00792D120282EF9F
:1000560060F1C283C284E4F508742D2508F8E6FF32
:100066001200030508E508C3940140EDC2947FE23F
:10007600120323D294E52D2441603824E0602C2419
:10008600F0602324F8601024FC601624FE600D1432
:10009600702912039B80AC1203B980A712038C80CF
:1000A600A21203AA809D1203C88098756F647570AA
:1000B600648090756F1E75701E80881203C88083D9
:030000000200C635
:0C00C600787FE4F6D8FD75817002010D12
:1001DD00BB010689828A83E0225002E722BBFE0220
:0901ED00E32289828A83E4932253
:1001F600F8BB010DE58229F582E5833AF583E8F03F
:10020600225006E92582C8F622BBFE05E92582C8EA
:02021600F222D2
:1000D200020026E493A3F8E493A34003F68001F21E
:1000E20008DFF48029E493A3F85407240CC8C3332F
:1000F200C4540F4420C8834004F456800146F6DFFE
:10010200E4800B010204081020408090033CE47E4E
:10011200019360BCA3FF543F30E509541FFEE493F2
:10012200A360010ECF54C025E060A840B8E493A3B9
:10013200FAE493A3F8E493A3C8C582C8CAC583CAE4
:10014200F0A3C8C582C8CAC583CADFE9DEE780BE9C
:0103540000A8
:00000001FF
